{
  "_format": "hh3-artifact-1",
  "contractName": "SmartWalletFactory",
  "sourceName": "contracts/SmartWallet.sol",
  "abi": [
    {
      "inputs": [
        {
          "internalType": "address",
          "name": "_platformWallet",
          "type": "address"
        }
      ],
      "stateMutability": "nonpayable",
      "type": "constructor"
    },
    {
      "anonymous": false,
      "inputs": [
        {
          "indexed": false,
          "internalType": "address",
          "name": "token",
          "type": "address"
        }
      ],
      "name": "AllowedAssetAdded",
      "type": "event"
    },
    {
      "anonymous": false,
      "inputs": [
        {
          "indexed": false,
          "internalType": "address",
          "name": "token",
          "type": "address"
        }
      ],
      "name": "AllowedAssetRemoved",
      "type": "event"
    },
    {
      "anonymous": false,
      "inputs": [
        {
          "indexed": false,
          "internalType": "uint256",
          "name": "newFee",
          "type": "uint256"
        }
      ],
      "name": "PlatformFeeUpdated",
      "type": "event"
    },
    {
      "anonymous": false,
      "inputs": [
        {
          "indexed": true,
          "internalType": "address",
          "name": "creator",
          "type": "address"
        },
        {
          "indexed": false,
          "internalType": "address",
          "name": "wallet",
          "type": "address"
        }
      ],
      "name": "WalletCreated",
      "type": "event"
    },
    {
      "inputs": [
        {
          "internalType": "address",
          "name": "token",
          "type": "address"
        }
      ],
      "name": "addAllowedAsset",
      "outputs": [],
      "stateMutability": "nonpayable",
      "type": "function"
    },
    {
      "inputs": [
        {
          "internalType": "address",
          "name": "",
          "type": "address"
        }
      ],
      "name": "allowedAssets",
      "outputs": [
        {
          "internalType": "bool",
          "name": "",
          "type": "bool"
        }
      ],
      "stateMutability": "view",
      "type": "function"
    },
    {
      "inputs": [
        {
          "internalType": "bytes32",
          "name": "spaceID",
          "type": "bytes32"
        }
      ],
      "name": "createWallet",
      "outputs": [
        {
          "internalType": "address",
          "name": "",
          "type": "address"
        }
      ],
      "stateMutability": "nonpayable",
      "type": "function"
    },
    {
      "inputs": [
        {
          "internalType": "address payable",
          "name": "walletAddress",
          "type": "address"
        },
        {
          "internalType": "address",
          "name": "token",
          "type": "address"
        },
        {
          "internalType": "uint256",
          "name": "amount",
          "type": "uint256"
        }
      ],
      "name": "executeForwardTransfer",
      "outputs": [],
      "stateMutability": "nonpayable",
      "type": "function"
    },
    {
      "inputs": [],
      "name": "getPlatformFee",
      "outputs": [
        {
          "internalType": "uint256",
          "name": "",
          "type": "uint256"
        }
      ],
      "stateMutability": "view",
      "type": "function"
    },
    {
      "inputs": [],
      "name": "getPlatformWallet",
      "outputs": [
        {
          "internalType": "address",
          "name": "",
          "type": "address"
        }
      ],
      "stateMutability": "view",
      "type": "function"
    },
    {
      "inputs": [
        {
          "internalType": "address",
          "name": "token",
          "type": "address"
        }
      ],
      "name": "isAllowedAsset",
      "outputs": [
        {
          "internalType": "bool",
          "name": "",
          "type": "bool"
        }
      ],
      "stateMutability": "view",
      "type": "function"
    },
    {
      "inputs": [],
      "name": "platformFee",
      "outputs": [
        {
          "internalType": "uint256",
          "name": "",
          "type": "uint256"
        }
      ],
      "stateMutability": "view",
      "type": "function"
    },
    {
      "inputs": [],
      "name": "platformWallet",
      "outputs": [
        {
          "internalType": "address",
          "name": "",
          "type": "address"
        }
      ],
      "stateMutability": "view",
      "type": "function"
    },
    {
      "inputs": [
        {
          "internalType": "address",
          "name": "token",
          "type": "address"
        }
      ],
      "name": "removeAllowedAsset",
      "outputs": [],
      "stateMutability": "nonpayable",
      "type": "function"
    },
    {
      "inputs": [
        {
          "internalType": "uint256",
          "name": "fee",
          "type": "uint256"
        }
      ],
      "name": "setPlatformFee",
      "outputs": [],
      "stateMutability": "nonpayable",
      "type": "function"
    },
    {
      "inputs": [
        {
          "internalType": "address",
          "name": "",
          "type": "address"
        }
      ],
      "name": "walletToCreator",
      "outputs": [
        {
          "internalType": "address",
          "name": "",
          "type": "address"
        }
      ],
      "stateMutability": "view",
      "type": "function"
    }
  ],
  "bytecode": "0x6080604052348015600e575f5ffd5b50604051611327380380611327833981016040819052602b916057565b5f80546001600160a01b039092166001600160a01b031992831617905560018054909116331790556082565b5f602082840312156066575f5ffd5b81516001600160a01b0381168114607b575f5ffd5b9392505050565b6112988061008f5f395ff3fe608060405234801561000f575f5ffd5b50600436106100b1575f3560e01c8063a2720f351161006e578063a2720f351461013f578063a43b525d14610167578063a4c1cccb1461017a578063c537bed0146101ac578063d76a09f4146101d7578063fa2af9da146101e7575f5ffd5b806312e8e2c3146100b55780631d647605146100ca57806326232a2e146100fa5780636cc6a882146101115780636ea8bc101461012457806398971f141461012c575b5f5ffd5b6100c86100c336600461063a565b6101f9565b005b6100dd6100d836600461063a565b6102a8565b6040516001600160a01b0390911681526020015b60405180910390f35b61010360055481565b6040519081526020016100f1565b6100c861011f366004610668565b6103f4565b600554610103565b6100c861013a366004610668565b61046e565b6100dd61014d366004610668565b60036020525f90815260409020546001600160a01b031681565b6100c861017536600461068a565b6104ea565b61019c610188366004610668565b60046020525f908152604090205460ff1681565b60405190151581526020016100f1565b61019c6101ba366004610668565b6001600160a01b03165f9081526004602052604090205460ff1690565b5f546001600160a01b03166100dd565b5f546100dd906001600160a01b031681565b6001546001600160a01b0316331461022c5760405162461bcd60e51b8152600401610223906106c8565b60405180910390fd5b606481111561026c5760405162461bcd60e51b815260206004820152600c60248201526b08ccaca40e8dede40d0d2ced60a31b6044820152606401610223565b60058190556040518181527f45610d581145924dd7090a5017e5f2b1d6f42213bb2e95707ff86846bbfcb1ca906020015b60405180910390a150565b335f9081526002602052604081206102c081846105db565b156103045760405162461bcd60e51b8152602060048201526014602482015273537061636520616c72656164792065786973747360601b6044820152606401610223565b5f3033306040516103149061062d565b6001600160a01b03938416815291831660208301529091166040820152606001604051809103905ff08015801561034d573d5f5f3e3d5ffd5b506040805180820182528681526001600160a01b038381166020808401828152885460018082018b555f8b815284812097516002909302909701918255915191018054919094166001600160a01b031991821617909355818452600381529284902080543393168317905583519081529251939450927f5b03bfed1c14a02bdeceb5fa582eb1a5765fc0bc64ca0e6af4c20afc9487f0819281900390910190a29392505050565b6001546001600160a01b0316331461041e5760405162461bcd60e51b8152600401610223906106c8565b6001600160a01b0381165f81815260046020908152604091829020805460ff1916905590519182527f42b0b7ac99512227a8d5628513f76bfb615ec2bd2ab6aa7f7bd59ce762be8ac7910161029d565b6001546001600160a01b031633146104985760405162461bcd60e51b8152600401610223906106c8565b6001600160a01b0381165f81815260046020908152604091829020805460ff1916600117905590519182527e844926b92cb3e978a9e1c100ea92fdecda92b153f8b167fe3c17120beb128d910161029d565b6001546001600160a01b031633146105145760405162461bcd60e51b8152600401610223906106c8565b6001600160a01b038084165f9081526003602052604090205416806105705760405162461bcd60e51b8152602060048201526012602482015271139bdd0818481d985b1a59081dd85b1b195d60721b6044820152606401610223565b604051635dd3df5b60e11b81526001600160a01b03848116600483015260248201849052828116604483015285169063bba7beb6906064015f604051808303815f87803b1580156105bf575f5ffd5b505af11580156105d1573d5f5f3e3d5ffd5b5050505050505050565b5f805b83548110156106225782845f0182815481106105fc576105fc6106f0565b905f5260205f2090600202015f01540361061a576001915050610627565b6001016105de565b505f90505b92915050565b610b5e8061070583390190565b5f6020828403121561064a575f5ffd5b5035919050565b6001600160a01b0381168114610665575f5ffd5b50565b5f60208284031215610678575f5ffd5b813561068381610651565b9392505050565b5f5f5f6060848603121561069c575f5ffd5b83356106a781610651565b925060208401356106b781610651565b929592945050506040919091013590565b6020808252600e908201526d2737ba1031b7b73a3937b63632b960911b604082015260600190565b634e487b7160e01b5f52603260045260245ffdfe6080604052348015600e575f5ffd5b50604051610b5e380380610b5e833981016040819052602b916092565b5f80546001600160a01b039485166001600160a01b0319918216179091556001805493851693821693909317909255600380549190931691161790556002805460ff60a01b1916905560cb565b80516001600160a01b0381168114608d575f5ffd5b919050565b5f5f5f6060848603121560a3575f5ffd5b60aa846078565b925060b6602085016078565b915060c2604085016078565b90509250925092565b610a86806100d85f395ff3fe60806040526004361061007c575f3560e01c806385ba629b1161004c57806385ba629b1461031f578063a1244be014610340578063bba7beb614610354578063c45a015514610373575f5ffd5b806302d05d3f14610280578063483a5f14146102bc5780635b43b10e146102db5780635db26611146102ef575f5ffd5b3661027c57600354604080516306ea8bc160e41b815290515f926001600160a01b031691636ea8bc109160048083019260209291908290030181865afa1580156100c8573d5f5f3e3d5ffd5b505050506040513d601f19601f820116820180604052508101906100ec91906108fc565b90505f60646100fb8334610927565b6101059190610944565b90505f6101128234610963565b6001546040519192506001600160a01b03169082156108fc029083905f818181858888f1935050505015801561014a573d5f5f3e3d5ffd5b5060035f9054906101000a90046001600160a01b03166001600160a01b031663d76a09f46040518163ffffffff1660e01b8152600401602060405180830381865afa15801561019b573d5f5f3e3d5ffd5b505050506040513d601f19601f820116820180604052508101906101bf919061098d565b6001600160a01b03166108fc8390811502906040515f60405180830381858888f193505050501580156101f4573d5f5f3e3d5ffd5b50604080513381523460208201527f6ef95f06320e7a25a04a175ca677b7052bdd97131872c2192525a629f51be770910160405180910390a1600154604080516001600160a01b0390921682526020820183905281018390527f56a12c07db1ce5ab325bf1e961b0663e516d8b63934b7acf68076840b8fef70c9060600160405180910390a1005b5f5ffd5b34801561028b575f5ffd5b5060015461029f906001600160a01b031681565b6040516001600160a01b0390911681526020015b60405180910390f35b3480156102c7575f5ffd5b5060025461029f906001600160a01b031681565b3480156102e6575f5ffd5b5061029f610392565b3480156102fa575f5ffd5b5060025461030f90600160a01b900460ff1681565b60405190151581526020016102b3565b34801561032a575f5ffd5b5061033e6103393660046109af565b6103f9565b005b34801561034b575f5ffd5b5061033e61048c565b34801561035f575f5ffd5b5061033e61036e3660046109ca565b6104c4565b34801561037e575f5ffd5b5060035461029f906001600160a01b031681565b6002545f906001600160a01b03166103e95760405162461bcd60e51b815260206004820152601560248201527410dc99585d1bdc881d1bdad95b881b9bdd081cd95d605a1b60448201526064015b60405180910390fd5b506002546001600160a01b031690565b5f546001600160a01b031633146104225760405162461bcd60e51b81526004016103e090610a09565b6001600160a01b03811661046a5760405162461bcd60e51b815260206004820152600f60248201526e496e76616c6964206164647265737360881b60448201526064016103e0565b600280546001600160a01b0319166001600160a01b0392909216919091179055565b5f546001600160a01b031633146104b55760405162461bcd60e51b81526004016103e090610a09565b6002805460ff60a01b19169055565b5f546001600160a01b031633146104ed5760405162461bcd60e51b81526004016103e090610a09565b600354604051630c537bed60e41b81526001600160a01b0385811660048301529091169063c537bed090602401602060405180830381865afa158015610535573d5f5f3e3d5ffd5b505050506040513d601f19601f820116820180604052508101906105599190610a31565b6105995760405162461bcd60e51b8152602060048201526011602482015270151bdad95b881b9bdd08185b1b1bddd959607a1b60448201526064016103e0565b5f82116105d55760405162461bcd60e51b815260206004820152600a602482015269139bc81c185e5b595b9d60b21b60448201526064016103e0565b600354604080516306ea8bc160e41b815290515f926001600160a01b031691636ea8bc109160048083019260209291908290030181865afa15801561061c573d5f5f3e3d5ffd5b505050506040513d601f19601f8201168201806040525081019061064091906108fc565b90505f606461064f8386610927565b6106599190610944565b90505f6106668286610963565b60015460405163a9059cbb60e01b81526001600160a01b0391821660048201526024810183905291925087169063a9059cbb906044016020604051808303815f875af11580156106b8573d5f5f3e3d5ffd5b505050506040513d601f19601f820116820180604052508101906106dc9190610a31565b6107285760405162461bcd60e51b815260206004820152601760248201527f43726561746f72207472616e73666572206661696c656400000000000000000060448201526064016103e0565b856001600160a01b031663a9059cbb60035f9054906101000a90046001600160a01b03166001600160a01b031663d76a09f46040518163ffffffff1660e01b8152600401602060405180830381865afa158015610787573d5f5f3e3d5ffd5b505050506040513d601f19601f820116820180604052508101906107ab919061098d565b6040516001600160e01b031960e084901b1681526001600160a01b039091166004820152602481018590526044016020604051808303815f875af11580156107f5573d5f5f3e3d5ffd5b505050506040513d601f19601f820116820180604052508101906108199190610a31565b6108655760405162461bcd60e51b815260206004820152601860248201527f506c6174666f726d207472616e73666572206661696c6564000000000000000060448201526064016103e0565b604080516001600160a01b0386168152602081018790527f6ef95f06320e7a25a04a175ca677b7052bdd97131872c2192525a629f51be770910160405180910390a1600154604080516001600160a01b0390921682526020820183905281018390527f56a12c07db1ce5ab325bf1e961b0663e516d8b63934b7acf68076840b8fef70c9060600160405180910390a1505050505050565b5f6020828403121561090c575f5ffd5b5051919050565b634e487b7160e01b5f52601160045260245ffd5b808202811582820484141761093e5761093e610913565b92915050565b5f8261095e57634e487b7160e01b5f52601260045260245ffd5b500490565b8181038181111561093e5761093e610913565b6001600160a01b038116811461098a575f5ffd5b50565b5f6020828403121561099d575f5ffd5b81516109a881610976565b9392505050565b5f602082840312156109bf575f5ffd5b81356109a881610976565b5f5f5f606084860312156109dc575f5ffd5b83356109e781610976565b92506020840135915060408401356109fe81610976565b809150509250925092565b6020808252600e908201526d2737ba1031b7b73a3937b63632b960911b604082015260600190565b5f60208284031215610a41575f5ffd5b815180151581146109a8575f5ffdfea26469706673582212205f5d2a1918920b71c31041b326bd38bb671701f9c6a0acba6ba0f6932e139a8864736f6c634300081c0033a264697066735822122055a616b43079236ce29dd36820abfd5417f039a6246362e9032f49c92d4f25c064736f6c634300081c0033",
  "linkReferences": {},
  "deployedLinkReferences": {},
  "immutableReferences": {},
  "inputSourceName": "project/contracts/SmartWallet.sol",
  "buildInfoId": "solc-0_8_28-87d674ef32813db46f96f5f10d09c69b0df1f532"
}